{"abi":[{"inputs":[],"stateMutability":"nonpayable","type":"constructor","name":"constructor"},{"anonymous":false,"inputs":[{"indexed":false,"internalType":"address","name":"operator","type":"address"},{"indexed":false,"internalType":"string","name":"funcMsg","type":"string"}],"name":"HelloCalled","type":"event"},{"inputs":[],"name":"testFunc","outputs":[],"stateMutability":"nonpayable","type":"function"}],"bytecode":"608060405234801561001057600080fd5b50604080518082019091526009815268466f6f42617230303160b81b602082015260009061003e90826100e3565b506101a2565b634e487b7160e01b600052604160045260246000fd5b600181811c9082168061006e57607f821691505b60208210810361008e57634e487b7160e01b600052602260045260246000fd5b50919050565b601f8211156100de57600081815260208120601f850160051c810160208610156100bb5750805b601f850160051c820191505b818110156100da578281556001016100c7565b5050505b505050565b81516001600160401b038111156100fc576100fc610044565b6101108161010a845461005a565b84610094565b602080601f831160018114610145576000841561012d5750858301515b600019600386901b1c1916600185901b1785556100da565b600085815260208120601f198616915b8281101561017457888601518255948401946001909101908401610155565b50858210156101925787850151600019600388901b60f8161c191681555b5050505050600190811b01905550565b60c2806101b06000396000f3fe6080604052348015600f57600080fd5b506004361060285760003560e01c8063037a417c14602d575b600080fd5b60336035565b005b6040805133815260208101829052600c818301526b48656c6c6f20576f726c642160a01b606082015290517f66f53ad900ac679f87d7a144d42b174903e6248bdb340246932ff8f1616319269181900360800190a156fea2646970667358221220d9c78480334dff98fff12d4ac052d5daeb3005cf3576b6987a616c6be2d551f764736f6c63430008100033","bytecodeSha1":"955a75deed4d2b55feb4dffda1d6d960e1bd15d8","compiler":{"evm_version":"istanbul","optimizer":{"enabled":true,"runs":200},"version":"0.8.16+commit.07a7930e"},"contractName":"FooBar","language":"Solidity","natspec":{"kind":"dev","methods":{},"version":1},"opcodes":"PUSH1 0x80 PUSH1 0x40 MSTORE CALLVALUE DUP1 ISZERO PUSH1 0xF JUMPI PUSH1 0x0 DUP1 REVERT JUMPDEST POP PUSH1 0x4 CALLDATASIZE LT PUSH1 0x28 JUMPI PUSH1 0x0 CALLDATALOAD PUSH1 0xE0 SHR DUP1 PUSH4 0x37A417C EQ PUSH1 0x2D JUMPI JUMPDEST PUSH1 0x0 DUP1 REVERT JUMPDEST PUSH1 0x33 PUSH1 0x35 JUMP JUMPDEST STOP JUMPDEST PUSH1 0x40 DUP1 MLOAD CALLER DUP2 MSTORE PUSH1 0x20 DUP2 ADD DUP3 SWAP1 MSTORE PUSH1 0xC DUP2 DUP4 ADD MSTORE PUSH12 0x48656C6C6F20576F726C6421 PUSH1 0xA0 SHL PUSH1 0x60 DUP3 ADD MSTORE SWAP1 MLOAD PUSH32 0x66F53AD900AC679F87D7A144D42B174903E6248BDB340246932FF8F161631926 SWAP2 DUP2 SWAP1 SUB PUSH1 0x80 ADD SWAP1 LOG1 JUMP INVALID LOG2 PUSH5 0x6970667358 0x22 SLT KECCAK256 0xD9 0xC7 DUP5 DUP1 CALLER 0x4D SELFDESTRUCT SWAP9 SELFDESTRUCT CALL 0x2D 0x4A 0xC0 MSTORE 0xD5 0xDA 0xEB ADDRESS SDIV 0xCF CALLDATALOAD PUSH23 0xB6987A616C6BE2D551F764736F6C634300081000330000 ","sha1":"0332b15ca60f0c6c41ccb6bf557023c8a0881c69","source":"// No License\npragma solidity ^0.8.0;\n\ncontract FooBar {\n\n    string identifier;\n\n    constructor() {\n        identifier = \"FooBar001\";\n    }\n\n    event HelloCalled(\n        address operator,\n        string funcMsg\n    );\n\n    function testFunc() public {\n        emit HelloCalled(msg.sender, \"Hello World!\");\n    }\n}","sourcePath":"contracts/BrownieDemo.sol","type":"contract","deployment":{"address":"0x8C78d5e81F58DCb3AF7B09106680421F1F35e758","chainid":"4","blockHeight":11211827}}